{
    "_format": "hh-sol-artifact-1",
    "contractName": "NFTRoyalties",
    "sourceName": "contracts/NFTRoyalties.sol",
    "abi": [
        {
            "inputs": [
                {
                    "internalType": "uint96",
                    "name": "_royaltyFeesInBips",
                    "type": "uint96"
                },
                {
                    "internalType": "string",
                    "name": "_contractURI",
                    "type": "string"
                },
                {
                    "internalType": "string",
                    "name": "baseURI",
                    "type": "string"
                },
                {
                    "internalType": "uint256",
                    "name": "price",
                    "type": "uint256"
                }
            ],
            "stateMutability": "nonpayable",
            "type": "constructor"
        },
        {
            "anonymous": false,
            "inputs": [
                {
                    "indexed": true,
                    "internalType": "address",
                    "name": "owner",
                    "type": "address"
                },
                {
                    "indexed": true,
                    "internalType": "address",
                    "name": "approved",
                    "type": "address"
                },
                {
                    "indexed": true,
                    "internalType": "uint256",
                    "name": "tokenId",
                    "type": "uint256"
                }
            ],
            "name": "Approval",
            "type": "event"
        },
        {
            "anonymous": false,
            "inputs": [
                {
                    "indexed": true,
                    "internalType": "address",
                    "name": "owner",
                    "type": "address"
                },
                {
                    "indexed": true,
                    "internalType": "address",
                    "name": "operator",
                    "type": "address"
                },
                {
                    "indexed": false,
                    "internalType": "bool",
                    "name": "approved",
                    "type": "bool"
                }
            ],
            "name": "ApprovalForAll",
            "type": "event"
        },
        {
            "anonymous": false,
            "inputs": [
                {
                    "indexed": true,
                    "internalType": "address",
                    "name": "previousOwner",
                    "type": "address"
                },
                {
                    "indexed": true,
                    "internalType": "address",
                    "name": "newOwner",
                    "type": "address"
                }
            ],
            "name": "OwnershipTransferred",
            "type": "event"
        },
        {
            "anonymous": false,
            "inputs": [
                {
                    "indexed": true,
                    "internalType": "address",
                    "name": "from",
                    "type": "address"
                },
                {
                    "indexed": true,
                    "internalType": "address",
                    "name": "to",
                    "type": "address"
                },
                {
                    "indexed": true,
                    "internalType": "uint256",
                    "name": "tokenId",
                    "type": "uint256"
                }
            ],
            "name": "Transfer",
            "type": "event"
        },
        {
            "inputs": [],
            "name": "BASE_URI",
            "outputs": [
                {
                    "internalType": "string",
                    "name": "",
                    "type": "string"
                }
            ],
            "stateMutability": "view",
            "type": "function"
        },
        {
            "inputs": [],
            "name": "MAX_SUPPLY",
            "outputs": [
                {
                    "internalType": "uint256",
                    "name": "",
                    "type": "uint256"
                }
            ],
            "stateMutability": "view",
            "type": "function"
        },
        {
            "inputs": [],
            "name": "PRICE",
            "outputs": [
                {
                    "internalType": "uint256",
                    "name": "",
                    "type": "uint256"
                }
            ],
            "stateMutability": "view",
            "type": "function"
        },
        {
            "inputs": [
                {
                    "internalType": "address",
                    "name": "to",
                    "type": "address"
                },
                {
                    "internalType": "uint256",
                    "name": "tokenId",
                    "type": "uint256"
                }
            ],
            "name": "approve",
            "outputs": [],
            "stateMutability": "nonpayable",
            "type": "function"
        },
        {
            "inputs": [
                {
                    "internalType": "address",
                    "name": "owner",
                    "type": "address"
                }
            ],
            "name": "balanceOf",
            "outputs": [
                {
                    "internalType": "uint256",
                    "name": "",
                    "type": "uint256"
                }
            ],
            "stateMutability": "view",
            "type": "function"
        },
        {
            "inputs": [
                {
                    "internalType": "uint256",
                    "name": "_salePrice",
                    "type": "uint256"
                }
            ],
            "name": "calculateRoyalty",
            "outputs": [
                {
                    "internalType": "uint256",
                    "name": "",
                    "type": "uint256"
                }
            ],
            "stateMutability": "view",
            "type": "function"
        },
        {
            "inputs": [],
            "name": "contractURI",
            "outputs": [
                {
                    "internalType": "string",
                    "name": "",
                    "type": "string"
                }
            ],
            "stateMutability": "view",
            "type": "function"
        },
        {
            "inputs": [
                {
                    "internalType": "uint256",
                    "name": "tokenId",
                    "type": "uint256"
                }
            ],
            "name": "getApproved",
            "outputs": [
                {
                    "internalType": "address",
                    "name": "",
                    "type": "address"
                }
            ],
            "stateMutability": "view",
            "type": "function"
        },
        {
            "inputs": [
                {
                    "internalType": "address",
                    "name": "owner",
                    "type": "address"
                },
                {
                    "internalType": "address",
                    "name": "operator",
                    "type": "address"
                }
            ],
            "name": "isApprovedForAll",
            "outputs": [
                {
                    "internalType": "bool",
                    "name": "",
                    "type": "bool"
                }
            ],
            "stateMutability": "view",
            "type": "function"
        },
        {
            "inputs": [
                {
                    "internalType": "address",
                    "name": "addr",
                    "type": "address"
                }
            ],
            "name": "mintToken",
            "outputs": [
                {
                    "internalType": "uint256",
                    "name": "",
                    "type": "uint256"
                }
            ],
            "stateMutability": "payable",
            "type": "function"
        },
        {
            "inputs": [],
            "name": "name",
            "outputs": [
                {
                    "internalType": "string",
                    "name": "",
                    "type": "string"
                }
            ],
            "stateMutability": "view",
            "type": "function"
        },
        {
            "inputs": [],
            "name": "owner",
            "outputs": [
                {
                    "internalType": "address",
                    "name": "",
                    "type": "address"
                }
            ],
            "stateMutability": "view",
            "type": "function"
        },
        {
            "inputs": [
                {
                    "internalType": "uint256",
                    "name": "tokenId",
                    "type": "uint256"
                }
            ],
            "name": "ownerOf",
            "outputs": [
                {
                    "internalType": "address",
                    "name": "",
                    "type": "address"
                }
            ],
            "stateMutability": "view",
            "type": "function"
        },
        {
            "inputs": [],
            "name": "renounceOwnership",
            "outputs": [],
            "stateMutability": "nonpayable",
            "type": "function"
        },
        {
            "inputs": [
                {
                    "internalType": "uint256",
                    "name": "_salePrice",
                    "type": "uint256"
                }
            ],
            "name": "royaltyInfo",
            "outputs": [
                {
                    "internalType": "address",
                    "name": "",
                    "type": "address"
                },
                {
                    "internalType": "uint256",
                    "name": "",
                    "type": "uint256"
                }
            ],
            "stateMutability": "view",
            "type": "function"
        },
        {
            "inputs": [
                {
                    "internalType": "address",
                    "name": "from",
                    "type": "address"
                },
                {
                    "internalType": "address",
                    "name": "to",
                    "type": "address"
                },
                {
                    "internalType": "uint256",
                    "name": "tokenId",
                    "type": "uint256"
                }
            ],
            "name": "safeTransferFrom",
            "outputs": [],
            "stateMutability": "nonpayable",
            "type": "function"
        },
        {
            "inputs": [
                {
                    "internalType": "address",
                    "name": "from",
                    "type": "address"
                },
                {
                    "internalType": "address",
                    "name": "to",
                    "type": "address"
                },
                {
                    "internalType": "uint256",
                    "name": "tokenId",
                    "type": "uint256"
                },
                {
                    "internalType": "bytes",
                    "name": "_data",
                    "type": "bytes"
                }
            ],
            "name": "safeTransferFrom",
            "outputs": [],
            "stateMutability": "nonpayable",
            "type": "function"
        },
        {
            "inputs": [
                {
                    "internalType": "address",
                    "name": "operator",
                    "type": "address"
                },
                {
                    "internalType": "bool",
                    "name": "approved",
                    "type": "bool"
                }
            ],
            "name": "setApprovalForAll",
            "outputs": [],
            "stateMutability": "nonpayable",
            "type": "function"
        },
        {
            "inputs": [
                {
                    "internalType": "string",
                    "name": "_contractURI",
                    "type": "string"
                }
            ],
            "name": "setContractURI",
            "outputs": [],
            "stateMutability": "nonpayable",
            "type": "function"
        },
        {
            "inputs": [
                {
                    "internalType": "address",
                    "name": "_receiver",
                    "type": "address"
                },
                {
                    "internalType": "uint96",
                    "name": "_royaltyFeesInBips",
                    "type": "uint96"
                }
            ],
            "name": "setRoyaltyInfo",
            "outputs": [],
            "stateMutability": "nonpayable",
            "type": "function"
        },
        {
            "inputs": [
                {
                    "internalType": "bytes4",
                    "name": "interfaceId",
                    "type": "bytes4"
                }
            ],
            "name": "supportsInterface",
            "outputs": [
                {
                    "internalType": "bool",
                    "name": "",
                    "type": "bool"
                }
            ],
            "stateMutability": "view",
            "type": "function"
        },
        {
            "inputs": [],
            "name": "symbol",
            "outputs": [
                {
                    "internalType": "string",
                    "name": "",
                    "type": "string"
                }
            ],
            "stateMutability": "view",
            "type": "function"
        },
        {
            "inputs": [
                {
                    "internalType": "uint256",
                    "name": "index",
                    "type": "uint256"
                }
            ],
            "name": "tokenByIndex",
            "outputs": [
                {
                    "internalType": "uint256",
                    "name": "",
                    "type": "uint256"
                }
            ],
            "stateMutability": "view",
            "type": "function"
        },
        {
            "inputs": [
                {
                    "internalType": "address",
                    "name": "owner",
                    "type": "address"
                },
                {
                    "internalType": "uint256",
                    "name": "index",
                    "type": "uint256"
                }
            ],
            "name": "tokenOfOwnerByIndex",
            "outputs": [
                {
                    "internalType": "uint256",
                    "name": "",
                    "type": "uint256"
                }
            ],
            "stateMutability": "view",
            "type": "function"
        },
        {
            "inputs": [
                {
                    "internalType": "uint256",
                    "name": "tokenId",
                    "type": "uint256"
                }
            ],
            "name": "tokenURI",
            "outputs": [
                {
                    "internalType": "string",
                    "name": "",
                    "type": "string"
                }
            ],
            "stateMutability": "view",
            "type": "function"
        },
        {
            "inputs": [],
            "name": "totalSupply",
            "outputs": [
                {
                    "internalType": "uint256",
                    "name": "",
                    "type": "uint256"
                }
            ],
            "stateMutability": "view",
            "type": "function"
        },
        {
            "inputs": [
                {
                    "internalType": "address",
                    "name": "from",
                    "type": "address"
                },
                {
                    "internalType": "address",
                    "name": "to",
                    "type": "address"
                },
                {
                    "internalType": "uint256",
                    "name": "tokenId",
                    "type": "uint256"
                }
            ],
            "name": "transferFrom",
            "outputs": [],
            "stateMutability": "nonpayable",
            "type": "function"
        },
        {
            "inputs": [
                {
                    "internalType": "address",
                    "name": "newOwner",
                    "type": "address"
                }
            ],
            "name": "transferOwnership",
            "outputs": [],
            "stateMutability": "nonpayable",
            "type": "function"
        }
    ],
    "bytecode": "0x6080604052612710600e556000600f553480156200001c57600080fd5b506040516200469038038062004690833981810160405281019062000042919062000523565b6040518060400160405280600581526020017f4d794e46540000000000000000000000000000000000000000000000000000008152506040518060400160405280600381526020017f4e465400000000000000000000000000000000000000000000000000000000008152508160009080519060200190620000c6929190620003d3565b508060019080519060200190620000df929190620003d3565b50505062000102620000f6620001d760201b60201c565b620001df60201b60201c565b83600c60006101000a8154816bffffffffffffffffffffffff02191690836bffffffffffffffffffffffff16021790555062000143620002a560201b60201c565b600c806101000a81548173ffffffffffffffffffffffffffffffffffffffff021916908373ffffffffffffffffffffffffffffffffffffffff16021790555082600b90805190602001906200019a929190620003d3565b5081600d9080519060200190620001b3929190620003d3565b5080600f81905550620001cd3385620002cf60201b60201c565b505050506200080a565b600033905090565b6000600a60009054906101000a900473ffffffffffffffffffffffffffffffffffffffff16905081600a60006101000a81548173ffffffffffffffffffffffffffffffffffffffff021916908373ffffffffffffffffffffffffffffffffffffffff1602179055508173ffffffffffffffffffffffffffffffffffffffff168173ffffffffffffffffffffffffffffffffffffffff167f8be0079c531659141344cd1fd0a4f28419497f9722a3daafe3b4186f6b6457e060405160405180910390a35050565b6000600a60009054906101000a900473ffffffffffffffffffffffffffffffffffffffff16905090565b620002df620001d760201b60201c565b73ffffffffffffffffffffffffffffffffffffffff1662000305620002a560201b60201c565b73ffffffffffffffffffffffffffffffffffffffff16146200035e576040517f08c379a00000000000000000000000000000000000000000000000000000000081526004016200035590620005e8565b60405180910390fd5b81600c806101000a81548173ffffffffffffffffffffffffffffffffffffffff021916908373ffffffffffffffffffffffffffffffffffffffff16021790555080600c60006101000a8154816bffffffffffffffffffffffff02191690836bffffffffffffffffffffffff1602179055505050565b828054620003e190620006d2565b90600052602060002090601f01602090048101928262000405576000855562000451565b82601f106200042057805160ff191683800117855562000451565b8280016001018555821562000451579182015b828111156200045057825182559160200191906001019062000433565b5b50905062000460919062000464565b5090565b5b808211156200047f57600081600090555060010162000465565b5090565b60006200049a620004948462000633565b6200060a565b905082815260208101848484011115620004b357600080fd5b620004c08482856200069c565b509392505050565b600082601f830112620004da57600080fd5b8151620004ec84826020860162000483565b91505092915050565b6000815190506200050681620007d6565b92915050565b6000815190506200051d81620007f0565b92915050565b600080600080608085870312156200053a57600080fd5b60006200054a878288016200050c565b945050602085015167ffffffffffffffff8111156200056857600080fd5b6200057687828801620004c8565b935050604085015167ffffffffffffffff8111156200059457600080fd5b620005a287828801620004c8565b9250506060620005b587828801620004f5565b91505092959194509250565b6000620005d060208362000669565b9150620005dd82620007ad565b602082019050919050565b600060208201905081810360008301526200060381620005c1565b9050919050565b60006200061662000629565b905062000624828262000708565b919050565b6000604051905090565b600067ffffffffffffffff8211156200065157620006506200076d565b5b6200065c826200079c565b9050602081019050919050565b600082825260208201905092915050565b6000819050919050565b60006bffffffffffffffffffffffff82169050919050565b60005b83811015620006bc5780820151818401526020810190506200069f565b83811115620006cc576000848401525b50505050565b60006002820490506001821680620006eb57607f821691505b602082108114156200070257620007016200073e565b5b50919050565b62000713826200079c565b810181811067ffffffffffffffff821117156200073557620007346200076d565b5b80604052505050565b7f4e487b7100000000000000000000000000000000000000000000000000000000600052602260045260246000fd5b7f4e487b7100000000000000000000000000000000000000000000000000000000600052604160045260246000fd5b6000601f19601f8301169050919050565b7f4f776e61626c653a2063616c6c6572206973206e6f7420746865206f776e6572600082015250565b620007e1816200067a565b8114620007ed57600080fd5b50565b620007fb8162000684565b81146200080757600080fd5b50565b613e76806200081a6000396000f3fe6080604052600436106101b75760003560e01c8063715018a6116100ec578063b88d4fde1161008a578063dbddb26a11610064578063dbddb26a1461064a578063e8a3d48514610675578063e985e9c5146106a0578063f2fde38b146106dd576101b7565b8063b88d4fde146105a6578063c87b56dd146105cf578063cef6d3681461060c576101b7565b8063938e3d7b116100c6578063938e3d7b146104ec57806395d89b4114610515578063a22cb46514610540578063a2e6961314610569576101b7565b8063715018a61461047f5780638d859f3e146104965780638da5cb5b146104c1576101b7565b806323b872dd1161015957806342842e0e1161013357806342842e0e1461039f5780634f6ccce7146103c85780636352211e1461040557806370a0823114610442576101b7565b806323b872dd1461030e5780632f745c591461033757806332cb6b0c14610374576101b7565b806306fdde031161019557806306fdde0314610252578063081812fc1461027d578063095ea7b3146102ba57806318160ddd146102e3576101b7565b806301173a74146101bc57806301ffc9a7146101ec57806302fa7c4714610229575b600080fd5b6101d660048036038101906101d191906129a2565b610706565b6040516101e39190613406565b60405180910390f35b3480156101f857600080fd5b50610213600480360381019061020e9190612b85565b6107c2565b6040516102209190613149565b60405180910390f35b34801561023557600080fd5b50610250600480360381019061024b9190612b49565b610804565b005b34801561025e57600080fd5b506102676108f5565b6040516102749190613164565b60405180910390f35b34801561028957600080fd5b506102a4600480360381019061029f9190612c1c565b610987565b6040516102b191906130b9565b60405180910390f35b3480156102c657600080fd5b506102e160048036038101906102dc9190612b0d565b610a0c565b005b3480156102ef57600080fd5b506102f8610b24565b6040516103059190613406565b60405180910390f35b34801561031a57600080fd5b5061033560048036038101906103309190612a07565b610b31565b005b34801561034357600080fd5b5061035e60048036038101906103599190612b0d565b610b91565b60405161036b9190613406565b60405180910390f35b34801561038057600080fd5b50610389610c36565b6040516103969190613406565b60405180910390f35b3480156103ab57600080fd5b506103c660048036038101906103c19190612a07565b610c3c565b005b3480156103d457600080fd5b506103ef60048036038101906103ea9190612c1c565b610c5c565b6040516103fc9190613406565b60405180910390f35b34801561041157600080fd5b5061042c60048036038101906104279190612c1c565b610cf3565b60405161043991906130b9565b60405180910390f35b34801561044e57600080fd5b50610469600480360381019061046491906129a2565b610da5565b6040516104769190613406565b60405180910390f35b34801561048b57600080fd5b50610494610e5d565b005b3480156104a257600080fd5b506104ab610ee5565b6040516104b89190613406565b60405180910390f35b3480156104cd57600080fd5b506104d6610eeb565b6040516104e391906130b9565b60405180910390f35b3480156104f857600080fd5b50610513600480360381019061050e9190612bd7565b610f15565b005b34801561052157600080fd5b5061052a610fa7565b6040516105379190613164565b60405180910390f35b34801561054c57600080fd5b5061056760048036038101906105629190612ad1565b611039565b005b34801561057557600080fd5b50610590600480360381019061058b9190612c1c565b61104f565b60405161059d9190613406565b60405180910390f35b3480156105b257600080fd5b506105cd60048036038101906105c89190612a56565b611099565b005b3480156105db57600080fd5b506105f660048036038101906105f19190612c1c565b6110fb565b6040516106039190613164565b60405180910390f35b34801561061857600080fd5b50610633600480360381019061062e9190612c1c565b6111a2565b604051610641929190613120565b60405180910390f35b34801561065657600080fd5b5061065f6111d8565b60405161066c9190613164565b60405180910390f35b34801561068157600080fd5b5061068a611266565b6040516106979190613164565b60405180910390f35b3480156106ac57600080fd5b506106c760048036038101906106c291906129cb565b6112f4565b6040516106d49190613149565b60405180910390f35b3480156106e957600080fd5b5061070460048036038101906106ff91906129a2565b611388565b005b600080610711610b24565b9050600e54811115610758576040517f08c379a000000000000000000000000000000000000000000000000000000000815260040161074f906133e6565b60405180910390fd5b600f5434101561079d576040517f08c379a000000000000000000000000000000000000000000000000000000000815260040161079490613386565b60405180910390fd5b60006001826107ac91906134cf565b90506107b88482611480565b8092505050919050565b6000632a55205a60e01b827bffffffffffffffffffffffffffffffffffffffffffffffffffffffff191614806107fd57506107fc8261149e565b5b9050919050565b61080c611518565b73ffffffffffffffffffffffffffffffffffffffff1661082a610eeb565b73ffffffffffffffffffffffffffffffffffffffff1614610880576040517f08c379a000000000000000000000000000000000000000000000000000000000815260040161087790613326565b60405180910390fd5b81600c806101000a81548173ffffffffffffffffffffffffffffffffffffffff021916908373ffffffffffffffffffffffffffffffffffffffff16021790555080600c60006101000a8154816bffffffffffffffffffffffff02191690836bffffffffffffffffffffffff1602179055505050565b606060008054610904906136b2565b80601f0160208091040260200160405190810160405280929190818152602001828054610930906136b2565b801561097d5780601f106109525761010080835404028352916020019161097d565b820191906000526020600020905b81548152906001019060200180831161096057829003601f168201915b5050505050905090565b600061099282611520565b6109d1576040517f08c379a00000000000000000000000000000000000000000000000000000000081526004016109c890613306565b60405180910390fd5b6004600083815260200190815260200160002060009054906101000a900473ffffffffffffffffffffffffffffffffffffffff169050919050565b6000610a1782610cf3565b90508073ffffffffffffffffffffffffffffffffffffffff168373ffffffffffffffffffffffffffffffffffffffff161415610a88576040517f08c379a0000000000000000000000000000000000000000000000000000000008152600401610a7f90613366565b60405180910390fd5b8073ffffffffffffffffffffffffffffffffffffffff16610aa7611518565b73ffffffffffffffffffffffffffffffffffffffff161480610ad65750610ad581610ad0611518565b6112f4565b5b610b15576040517f08c379a0000000000000000000000000000000000000000000000000000000008152600401610b0c90613286565b60405180910390fd5b610b1f838361158c565b505050565b6000600880549050905090565b610b42610b3c611518565b82611645565b610b81576040517f08c379a0000000000000000000000000000000000000000000000000000000008152600401610b78906133a6565b60405180910390fd5b610b8c838383611723565b505050565b6000610b9c83610da5565b8210610bdd576040517f08c379a0000000000000000000000000000000000000000000000000000000008152600401610bd490613186565b60405180910390fd5b600660008473ffffffffffffffffffffffffffffffffffffffff1673ffffffffffffffffffffffffffffffffffffffff168152602001908152602001600020600083815260200190815260200160002054905092915050565b600e5481565b610c5783838360405180602001604052806000815250611099565b505050565b6000610c66610b24565b8210610ca7576040517f08c379a0000000000000000000000000000000000000000000000000000000008152600401610c9e906133c6565b60405180910390fd5b60088281548110610ce1577f4e487b7100000000000000000000000000000000000000000000000000000000600052603260045260246000fd5b90600052602060002001549050919050565b6000806002600084815260200190815260200160002060009054906101000a900473ffffffffffffffffffffffffffffffffffffffff169050600073ffffffffffffffffffffffffffffffffffffffff168173ffffffffffffffffffffffffffffffffffffffff161415610d9c576040517f08c379a0000000000000000000000000000000000000000000000000000000008152600401610d93906132c6565b60405180910390fd5b80915050919050565b60008073ffffffffffffffffffffffffffffffffffffffff168273ffffffffffffffffffffffffffffffffffffffff161415610e16576040517f08c379a0000000000000000000000000000000000000000000000000000000008152600401610e0d906132a6565b60405180910390fd5b600360008373ffffffffffffffffffffffffffffffffffffffff1673ffffffffffffffffffffffffffffffffffffffff168152602001908152602001600020549050919050565b610e65611518565b73ffffffffffffffffffffffffffffffffffffffff16610e83610eeb565b73ffffffffffffffffffffffffffffffffffffffff1614610ed9576040517f08c379a0000000000000000000000000000000000000000000000000000000008152600401610ed090613326565b60405180910390fd5b610ee3600061198a565b565b600f5481565b6000600a60009054906101000a900473ffffffffffffffffffffffffffffffffffffffff16905090565b610f1d611518565b73ffffffffffffffffffffffffffffffffffffffff16610f3b610eeb565b73ffffffffffffffffffffffffffffffffffffffff1614610f91576040517f08c379a0000000000000000000000000000000000000000000000000000000008152600401610f8890613326565b60405180910390fd5b8181600b9190610fa29291906127cf565b505050565b606060018054610fb6906136b2565b80601f0160208091040260200160405190810160405280929190818152602001828054610fe2906136b2565b801561102f5780601f106110045761010080835404028352916020019161102f565b820191906000526020600020905b81548152906001019060200180831161101257829003601f168201915b5050505050905090565b61104b611044611518565b8383611a50565b5050565b6000600c60009054906101000a90046bffffffffffffffffffffffff166bffffffffffffffffffffffff16612710836110889190613525565b6110929190613556565b9050919050565b6110aa6110a4611518565b83611645565b6110e9576040517f08c379a00000000000000000000000000000000000000000000000000000000081526004016110e0906133a6565b60405180910390fd5b6110f584848484611bbd565b50505050565b606061110682611520565b611145576040517f08c379a000000000000000000000000000000000000000000000000000000000815260040161113c90613346565b60405180910390fd5b600061114f611c19565b9050600081511161116f576040518060200160405280600081525061119a565b8061117984611c41565b60405160200161118a929190613073565b6040516020818303038152906040525b915050919050565b600080600c8054906101000a900473ffffffffffffffffffffffffffffffffffffffff166111cf8461104f565b91509150915091565b600d80546111e5906136b2565b80601f0160208091040260200160405190810160405280929190818152602001828054611211906136b2565b801561125e5780601f106112335761010080835404028352916020019161125e565b820191906000526020600020905b81548152906001019060200180831161124157829003601f168201915b505050505081565b600b8054611273906136b2565b80601f016020809104026020016040519081016040528092919081815260200182805461129f906136b2565b80156112ec5780601f106112c1576101008083540402835291602001916112ec565b820191906000526020600020905b8154815290600101906020018083116112cf57829003601f168201915b505050505081565b6000600560008473ffffffffffffffffffffffffffffffffffffffff1673ffffffffffffffffffffffffffffffffffffffff16815260200190815260200160002060008373ffffffffffffffffffffffffffffffffffffffff1673ffffffffffffffffffffffffffffffffffffffff16815260200190815260200160002060009054906101000a900460ff16905092915050565b611390611518565b73ffffffffffffffffffffffffffffffffffffffff166113ae610eeb565b73ffffffffffffffffffffffffffffffffffffffff1614611404576040517f08c379a00000000000000000000000000000000000000000000000000000000081526004016113fb90613326565b60405180910390fd5b600073ffffffffffffffffffffffffffffffffffffffff168173ffffffffffffffffffffffffffffffffffffffff161415611474576040517f08c379a000000000000000000000000000000000000000000000000000000000815260040161146b906131c6565b60405180910390fd5b61147d8161198a565b50565b61149a828260405180602001604052806000815250611dee565b5050565b60007f780e9d63000000000000000000000000000000000000000000000000000000007bffffffffffffffffffffffffffffffffffffffffffffffffffffffff1916827bffffffffffffffffffffffffffffffffffffffffffffffffffffffff19161480611511575061151082611e49565b5b9050919050565b600033905090565b60008073ffffffffffffffffffffffffffffffffffffffff166002600084815260200190815260200160002060009054906101000a900473ffffffffffffffffffffffffffffffffffffffff1673ffffffffffffffffffffffffffffffffffffffff1614159050919050565b816004600083815260200190815260200160002060006101000a81548173ffffffffffffffffffffffffffffffffffffffff021916908373ffffffffffffffffffffffffffffffffffffffff160217905550808273ffffffffffffffffffffffffffffffffffffffff166115ff83610cf3565b73ffffffffffffffffffffffffffffffffffffffff167f8c5be1e5ebec7d5bd14f71427d1e84f3dd0314c0f7b2291e5b200ac8c7c3b92560405160405180910390a45050565b600061165082611520565b61168f576040517f08c379a000000000000000000000000000000000000000000000000000000000815260040161168690613266565b60405180910390fd5b600061169a83610cf3565b90508073ffffffffffffffffffffffffffffffffffffffff168473ffffffffffffffffffffffffffffffffffffffff1614806116dc57506116db81856112f4565b5b8061171a57508373ffffffffffffffffffffffffffffffffffffffff1661170284610987565b73ffffffffffffffffffffffffffffffffffffffff16145b91505092915050565b8273ffffffffffffffffffffffffffffffffffffffff1661174382610cf3565b73ffffffffffffffffffffffffffffffffffffffff1614611799576040517f08c379a0000000000000000000000000000000000000000000000000000000008152600401611790906131e6565b60405180910390fd5b600073ffffffffffffffffffffffffffffffffffffffff168273ffffffffffffffffffffffffffffffffffffffff161415611809576040517f08c379a000000000000000000000000000000000000000000000000000000000815260040161180090613226565b60405180910390fd5b611814838383611f2b565b61181f60008261158c565b6001600360008573ffffffffffffffffffffffffffffffffffffffff1673ffffffffffffffffffffffffffffffffffffffff168152602001908152602001600020600082825461186f91906135b0565b925050819055506001600360008473ffffffffffffffffffffffffffffffffffffffff1673ffffffffffffffffffffffffffffffffffffffff16815260200190815260200160002060008282546118c691906134cf565b92505081905550816002600083815260200190815260200160002060006101000a81548173ffffffffffffffffffffffffffffffffffffffff021916908373ffffffffffffffffffffffffffffffffffffffff160217905550808273ffffffffffffffffffffffffffffffffffffffff168473ffffffffffffffffffffffffffffffffffffffff167fddf252ad1be2c89b69c2b068fc378daa952ba7f163c4a11628f55a4df523b3ef60405160405180910390a4611985838383611f3b565b505050565b6000600a60009054906101000a900473ffffffffffffffffffffffffffffffffffffffff16905081600a60006101000a81548173ffffffffffffffffffffffffffffffffffffffff021916908373ffffffffffffffffffffffffffffffffffffffff1602179055508173ffffffffffffffffffffffffffffffffffffffff168173ffffffffffffffffffffffffffffffffffffffff167f8be0079c531659141344cd1fd0a4f28419497f9722a3daafe3b4186f6b6457e060405160405180910390a35050565b8173ffffffffffffffffffffffffffffffffffffffff168373ffffffffffffffffffffffffffffffffffffffff161415611abf576040517f08c379a0000000000000000000000000000000000000000000000000000000008152600401611ab690613246565b60405180910390fd5b80600560008573ffffffffffffffffffffffffffffffffffffffff1673ffffffffffffffffffffffffffffffffffffffff16815260200190815260200160002060008473ffffffffffffffffffffffffffffffffffffffff1673ffffffffffffffffffffffffffffffffffffffff16815260200190815260200160002060006101000a81548160ff0219169083151502179055508173ffffffffffffffffffffffffffffffffffffffff168373ffffffffffffffffffffffffffffffffffffffff167f17307eab39ab6107e8899845ad3d59bd9653f200f220920489ca2b5937696c3183604051611bb09190613149565b60405180910390a3505050565b611bc8848484611723565b611bd484848484611f40565b611c13576040517f08c379a0000000000000000000000000000000000000000000000000000000008152600401611c0a906131a6565b60405180910390fd5b50505050565b6060600d604051602001611c2d9190613097565b604051602081830303815290604052905090565b60606000821415611c89576040518060400160405280600181526020017f30000000000000000000000000000000000000000000000000000000000000008152509050611de9565b600082905060005b60008214611cbb578080611ca490613715565b915050600a82611cb49190613525565b9150611c91565b60008167ffffffffffffffff811115611cfd577f4e487b7100000000000000000000000000000000000000000000000000000000600052604160045260246000fd5b6040519080825280601f01601f191660200182016040528015611d2f5781602001600182028036833780820191505090505b5090505b60008514611de257600182611d4891906135b0565b9150600a85611d57919061375e565b6030611d6391906134cf565b60f81b818381518110611d9f577f4e487b7100000000000000000000000000000000000000000000000000000000600052603260045260246000fd5b60200101907effffffffffffffffffffffffffffffffffffffffffffffffffffffffffffff1916908160001a905350600a85611ddb9190613525565b9450611d33565b8093505050505b919050565b611df883836120d7565b611e056000848484611f40565b611e44576040517f08c379a0000000000000000000000000000000000000000000000000000000008152600401611e3b906131a6565b60405180910390fd5b505050565b60007f80ac58cd000000000000000000000000000000000000000000000000000000007bffffffffffffffffffffffffffffffffffffffffffffffffffffffff1916827bffffffffffffffffffffffffffffffffffffffffffffffffffffffff19161480611f1457507f5b5e139f000000000000000000000000000000000000000000000000000000007bffffffffffffffffffffffffffffffffffffffffffffffffffffffff1916827bffffffffffffffffffffffffffffffffffffffffffffffffffffffff1916145b80611f245750611f23826122b1565b5b9050919050565b611f3683838361231b565b505050565b505050565b6000611f618473ffffffffffffffffffffffffffffffffffffffff1661242f565b156120ca578373ffffffffffffffffffffffffffffffffffffffff1663150b7a02611f8a611518565b8786866040518563ffffffff1660e01b8152600401611fac94939291906130d4565b602060405180830381600087803b158015611fc657600080fd5b505af1925050508015611ff757506040513d601f19601f82011682018060405250810190611ff49190612bae565b60015b61207a573d8060008114612027576040519150601f19603f3d011682016040523d82523d6000602084013e61202c565b606091505b50600081511415612072576040517f08c379a0000000000000000000000000000000000000000000000000000000008152600401612069906131a6565b60405180910390fd5b805181602001fd5b63150b7a0260e01b7bffffffffffffffffffffffffffffffffffffffffffffffffffffffff1916817bffffffffffffffffffffffffffffffffffffffffffffffffffffffff1916149150506120cf565b600190505b949350505050565b600073ffffffffffffffffffffffffffffffffffffffff168273ffffffffffffffffffffffffffffffffffffffff161415612147576040517f08c379a000000000000000000000000000000000000000000000000000000000815260040161213e906132e6565b60405180910390fd5b61215081611520565b15612190576040517f08c379a000000000000000000000000000000000000000000000000000000000815260040161218790613206565b60405180910390fd5b61219c60008383611f2b565b6001600360008473ffffffffffffffffffffffffffffffffffffffff1673ffffffffffffffffffffffffffffffffffffffff16815260200190815260200160002060008282546121ec91906134cf565b92505081905550816002600083815260200190815260200160002060006101000a81548173ffffffffffffffffffffffffffffffffffffffff021916908373ffffffffffffffffffffffffffffffffffffffff160217905550808273ffffffffffffffffffffffffffffffffffffffff16600073ffffffffffffffffffffffffffffffffffffffff167fddf252ad1be2c89b69c2b068fc378daa952ba7f163c4a11628f55a4df523b3ef60405160405180910390a46122ad60008383611f3b565b5050565b60007f01ffc9a7000000000000000000000000000000000000000000000000000000007bffffffffffffffffffffffffffffffffffffffffffffffffffffffff1916827bffffffffffffffffffffffffffffffffffffffffffffffffffffffff1916149050919050565b612326838383612452565b600073ffffffffffffffffffffffffffffffffffffffff168373ffffffffffffffffffffffffffffffffffffffff1614156123695761236481612457565b6123a8565b8173ffffffffffffffffffffffffffffffffffffffff168373ffffffffffffffffffffffffffffffffffffffff16146123a7576123a683826124a0565b5b5b600073ffffffffffffffffffffffffffffffffffffffff168273ffffffffffffffffffffffffffffffffffffffff1614156123eb576123e68161260d565b61242a565b8273ffffffffffffffffffffffffffffffffffffffff168273ffffffffffffffffffffffffffffffffffffffff1614612429576124288282612750565b5b5b505050565b6000808273ffffffffffffffffffffffffffffffffffffffff163b119050919050565b505050565b6008805490506009600083815260200190815260200160002081905550600881908060018154018082558091505060019003906000526020600020016000909190919091505550565b600060016124ad84610da5565b6124b791906135b0565b905060006007600084815260200190815260200160002054905081811461259c576000600660008673ffffffffffffffffffffffffffffffffffffffff1673ffffffffffffffffffffffffffffffffffffffff168152602001908152602001600020600084815260200190815260200160002054905080600660008773ffffffffffffffffffffffffffffffffffffffff1673ffffffffffffffffffffffffffffffffffffffff168152602001908152602001600020600084815260200190815260200160002081905550816007600083815260200190815260200160002081905550505b6007600084815260200190815260200160002060009055600660008573ffffffffffffffffffffffffffffffffffffffff1673ffffffffffffffffffffffffffffffffffffffff16815260200190815260200160002060008381526020019081526020016000206000905550505050565b6000600160088054905061262191906135b0565b9050600060096000848152602001908152602001600020549050600060088381548110612677577f4e487b7100000000000000000000000000000000000000000000000000000000600052603260045260246000fd5b9060005260206000200154905080600883815481106126bf577f4e487b7100000000000000000000000000000000000000000000000000000000600052603260045260246000fd5b906000526020600020018190555081600960008381526020019081526020016000208190555060096000858152602001908152602001600020600090556008805480612734577f4e487b7100000000000000000000000000000000000000000000000000000000600052603160045260246000fd5b6001900381819060005260206000200160009055905550505050565b600061275b83610da5565b905081600660008573ffffffffffffffffffffffffffffffffffffffff1673ffffffffffffffffffffffffffffffffffffffff168152602001908152602001600020600083815260200190815260200160002081905550806007600084815260200190815260200160002081905550505050565b8280546127db906136b2565b90600052602060002090601f0160209004810192826127fd5760008555612844565b82601f1061281657803560ff1916838001178555612844565b82800160010185558215612844579182015b82811115612843578235825591602001919060010190612828565b5b5090506128519190612855565b5090565b5b8082111561286e576000816000905550600101612856565b5090565b600061288561288084613446565b613421565b90508281526020810184848401111561289d57600080fd5b6128a8848285613670565b509392505050565b6000813590506128bf81613dcd565b92915050565b6000813590506128d481613de4565b92915050565b6000813590506128e981613dfb565b92915050565b6000815190506128fe81613dfb565b92915050565b600082601f83011261291557600080fd5b8135612925848260208601612872565b91505092915050565b60008083601f84011261294057600080fd5b8235905067ffffffffffffffff81111561295957600080fd5b60208301915083600182028301111561297157600080fd5b9250929050565b60008135905061298781613e12565b92915050565b60008135905061299c81613e29565b92915050565b6000602082840312156129b457600080fd5b60006129c2848285016128b0565b91505092915050565b600080604083850312156129de57600080fd5b60006129ec858286016128b0565b92505060206129fd858286016128b0565b9150509250929050565b600080600060608486031215612a1c57600080fd5b6000612a2a868287016128b0565b9350506020612a3b868287016128b0565b9250506040612a4c86828701612978565b9150509250925092565b60008060008060808587031215612a6c57600080fd5b6000612a7a878288016128b0565b9450506020612a8b878288016128b0565b9350506040612a9c87828801612978565b925050606085013567ffffffffffffffff811115612ab957600080fd5b612ac587828801612904565b91505092959194509250565b60008060408385031215612ae457600080fd5b6000612af2858286016128b0565b9250506020612b03858286016128c5565b9150509250929050565b60008060408385031215612b2057600080fd5b6000612b2e858286016128b0565b9250506020612b3f85828601612978565b9150509250929050565b60008060408385031215612b5c57600080fd5b6000612b6a858286016128b0565b9250506020612b7b8582860161298d565b9150509250929050565b600060208284031215612b9757600080fd5b6000612ba5848285016128da565b91505092915050565b600060208284031215612bc057600080fd5b6000612bce848285016128ef565b91505092915050565b60008060208385031215612bea57600080fd5b600083013567ffffffffffffffff811115612c0457600080fd5b612c108582860161292e565b92509250509250929050565b600060208284031215612c2e57600080fd5b6000612c3c84828501612978565b91505092915050565b612c4e816135e4565b82525050565b612c5d816135f6565b82525050565b6000612c6e8261348c565b612c7881856134a2565b9350612c8881856020860161367f565b612c918161384b565b840191505092915050565b6000612ca782613497565b612cb181856134b3565b9350612cc181856020860161367f565b612cca8161384b565b840191505092915050565b6000612ce082613497565b612cea81856134c4565b9350612cfa81856020860161367f565b80840191505092915050565b60008154612d13816136b2565b612d1d81866134c4565b94506001821660008114612d385760018114612d4957612d7c565b60ff19831686528186019350612d7c565b612d5285613477565b60005b83811015612d7457815481890152600182019150602081019050612d55565b838801955050505b50505092915050565b6000612d92602b836134b3565b9150612d9d8261385c565b604082019050919050565b6000612db56032836134b3565b9150612dc0826138ab565b604082019050919050565b6000612dd86026836134b3565b9150612de3826138fa565b604082019050919050565b6000612dfb6025836134b3565b9150612e0682613949565b604082019050919050565b6000612e1e601c836134b3565b9150612e2982613998565b602082019050919050565b6000612e416024836134b3565b9150612e4c826139c1565b604082019050919050565b6000612e646019836134b3565b9150612e6f82613a10565b602082019050919050565b6000612e87602c836134b3565b9150612e9282613a39565b604082019050919050565b6000612eaa6038836134b3565b9150612eb582613a88565b604082019050919050565b6000612ecd602a836134b3565b9150612ed882613ad7565b604082019050919050565b6000612ef06029836134b3565b9150612efb82613b26565b604082019050919050565b6000612f136020836134b3565b9150612f1e82613b75565b602082019050919050565b6000612f36602c836134b3565b9150612f4182613b9e565b604082019050919050565b6000612f596020836134b3565b9150612f6482613bed565b602082019050919050565b6000612f7c602f836134b3565b9150612f8782613c16565b604082019050919050565b6000612f9f6021836134b3565b9150612faa82613c65565b604082019050919050565b6000612fc26012836134b3565b9150612fcd82613cb4565b602082019050919050565b6000612fe56031836134b3565b9150612ff082613cdd565b604082019050919050565b6000613008602c836134b3565b915061301382613d2c565b604082019050919050565b600061302b6017836134b3565b915061303682613d7b565b602082019050919050565b600061304e6001836134c4565b915061305982613da4565b600182019050919050565b61306d8161364e565b82525050565b600061307f8285612cd5565b915061308b8284612cd5565b91508190509392505050565b60006130a38284612d06565b91506130ae82613041565b915081905092915050565b60006020820190506130ce6000830184612c45565b92915050565b60006080820190506130e96000830187612c45565b6130f66020830186612c45565b6131036040830185613064565b81810360608301526131158184612c63565b905095945050505050565b60006040820190506131356000830185612c45565b6131426020830184613064565b9392505050565b600060208201905061315e6000830184612c54565b92915050565b6000602082019050818103600083015261317e8184612c9c565b905092915050565b6000602082019050818103600083015261319f81612d85565b9050919050565b600060208201905081810360008301526131bf81612da8565b9050919050565b600060208201905081810360008301526131df81612dcb565b9050919050565b600060208201905081810360008301526131ff81612dee565b9050919050565b6000602082019050818103600083015261321f81612e11565b9050919050565b6000602082019050818103600083015261323f81612e34565b9050919050565b6000602082019050818103600083015261325f81612e57565b9050919050565b6000602082019050818103600083015261327f81612e7a565b9050919050565b6000602082019050818103600083015261329f81612e9d565b9050919050565b600060208201905081810360008301526132bf81612ec0565b9050919050565b600060208201905081810360008301526132df81612ee3565b9050919050565b600060208201905081810360008301526132ff81612f06565b9050919050565b6000602082019050818103600083015261331f81612f29565b9050919050565b6000602082019050818103600083015261333f81612f4c565b9050919050565b6000602082019050818103600083015261335f81612f6f565b9050919050565b6000602082019050818103600083015261337f81612f92565b9050919050565b6000602082019050818103600083015261339f81612fb5565b9050919050565b600060208201905081810360008301526133bf81612fd8565b9050919050565b600060208201905081810360008301526133df81612ffb565b9050919050565b600060208201905081810360008301526133ff8161301e565b9050919050565b600060208201905061341b6000830184613064565b92915050565b600061342b61343c565b905061343782826136e4565b919050565b6000604051905090565b600067ffffffffffffffff8211156134615761346061381c565b5b61346a8261384b565b9050602081019050919050565b60008190508160005260206000209050919050565b600081519050919050565b600081519050919050565b600082825260208201905092915050565b600082825260208201905092915050565b600081905092915050565b60006134da8261364e565b91506134e58361364e565b9250827fffffffffffffffffffffffffffffffffffffffffffffffffffffffffffffffff0382111561351a5761351961378f565b5b828201905092915050565b60006135308261364e565b915061353b8361364e565b92508261354b5761354a6137be565b5b828204905092915050565b60006135618261364e565b915061356c8361364e565b9250817fffffffffffffffffffffffffffffffffffffffffffffffffffffffffffffffff04831182151516156135a5576135a461378f565b5b828202905092915050565b60006135bb8261364e565b91506135c68361364e565b9250828210156135d9576135d861378f565b5b828203905092915050565b60006135ef8261362e565b9050919050565b60008115159050919050565b60007fffffffff0000000000000000000000000000000000000000000000000000000082169050919050565b600073ffffffffffffffffffffffffffffffffffffffff82169050919050565b6000819050919050565b60006bffffffffffffffffffffffff82169050919050565b82818337600083830152505050565b60005b8381101561369d578082015181840152602081019050613682565b838111156136ac576000848401525b50505050565b600060028204905060018216806136ca57607f821691505b602082108114156136de576136dd6137ed565b5b50919050565b6136ed8261384b565b810181811067ffffffffffffffff8211171561370c5761370b61381c565b5b80604052505050565b60006137208261364e565b91507fffffffffffffffffffffffffffffffffffffffffffffffffffffffffffffffff8214156137535761375261378f565b5b600182019050919050565b60006137698261364e565b91506137748361364e565b925082613784576137836137be565b5b828206905092915050565b7f4e487b7100000000000000000000000000000000000000000000000000000000600052601160045260246000fd5b7f4e487b7100000000000000000000000000000000000000000000000000000000600052601260045260246000fd5b7f4e487b7100000000000000000000000000000000000000000000000000000000600052602260045260246000fd5b7f4e487b7100000000000000000000000000000000000000000000000000000000600052604160045260246000fd5b6000601f19601f8301169050919050565b7f455243373231456e756d657261626c653a206f776e657220696e646578206f7560008201527f74206f6620626f756e6473000000000000000000000000000000000000000000602082015250565b7f4552433732313a207472616e7366657220746f206e6f6e20455243373231526560008201527f63656976657220696d706c656d656e7465720000000000000000000000000000602082015250565b7f4f776e61626c653a206e6577206f776e657220697320746865207a65726f206160008201527f6464726573730000000000000000000000000000000000000000000000000000602082015250565b7f4552433732313a207472616e736665722066726f6d20696e636f72726563742060008201527f6f776e6572000000000000000000000000000000000000000000000000000000602082015250565b7f4552433732313a20746f6b656e20616c7265616479206d696e74656400000000600082015250565b7f4552433732313a207472616e7366657220746f20746865207a65726f2061646460008201527f7265737300000000000000000000000000000000000000000000000000000000602082015250565b7f4552433732313a20617070726f766520746f2063616c6c657200000000000000600082015250565b7f4552433732313a206f70657261746f7220717565727920666f72206e6f6e657860008201527f697374656e7420746f6b656e0000000000000000000000000000000000000000602082015250565b7f4552433732313a20617070726f76652063616c6c6572206973206e6f74206f7760008201527f6e6572206e6f7220617070726f76656420666f7220616c6c0000000000000000602082015250565b7f4552433732313a2062616c616e636520717565727920666f7220746865207a6560008201527f726f206164647265737300000000000000000000000000000000000000000000602082015250565b7f4552433732313a206f776e657220717565727920666f72206e6f6e657869737460008201527f656e7420746f6b656e0000000000000000000000000000000000000000000000602082015250565b7f4552433732313a206d696e7420746f20746865207a65726f2061646472657373600082015250565b7f4552433732313a20617070726f76656420717565727920666f72206e6f6e657860008201527f697374656e7420746f6b656e0000000000000000000000000000000000000000602082015250565b7f4f776e61626c653a2063616c6c6572206973206e6f7420746865206f776e6572600082015250565b7f4552433732314d657461646174613a2055524920717565727920666f72206e6f60008201527f6e6578697374656e7420746f6b656e0000000000000000000000000000000000602082015250565b7f4552433732313a20617070726f76616c20746f2063757272656e74206f776e6560008201527f7200000000000000000000000000000000000000000000000000000000000000602082015250565b7f696e73756666696369656e742066756e64730000000000000000000000000000600082015250565b7f4552433732313a207472616e736665722063616c6c6572206973206e6f74206f60008201527f776e6572206e6f7220617070726f766564000000000000000000000000000000602082015250565b7f455243373231456e756d657261626c653a20676c6f62616c20696e646578206f60008201527f7574206f6620626f756e64730000000000000000000000000000000000000000602082015250565b7f576f756c6420657863656564206d617820737570706c79000000000000000000600082015250565b7f2f00000000000000000000000000000000000000000000000000000000000000600082015250565b613dd6816135e4565b8114613de157600080fd5b50565b613ded816135f6565b8114613df857600080fd5b50565b613e0481613602565b8114613e0f57600080fd5b50565b613e1b8161364e565b8114613e2657600080fd5b50565b613e3281613658565b8114613e3d57600080fd5b5056fea26469706673582212209fb7aa0cfb4c81f34a5c86af600939a742033fd7a7d32966c31d2d99e674398464736f6c63430008010033",
    "linkReferences": {},
    "deployedLinkReferences": {}
}